:100000000C942A000C9434000C9434000C943400AA
:100010000C9434000C9434000C9434000C94340090
:100020000C9434000C9434000C9434000C94340080
:100030000C9434000C9434000C9434000C94340070
:100040000C9434000C9434000C9434000C94340060
:100050000C94340011241FBECFE5D8E0DEBFCDBF25
:100060000E944C030C945B030C940000282F362F45
:100070006AE00E944F03492F822F0E944F033323CF
:1000800021F0313009F086C046C08230D1F0833093
:1000900020F4813009F07EC006C0833001F1843045
:1000A00009F078C02AC0EAE3F0E0208181E090E026
:1000B00002C0880F991F4A95E2F7809582238083BA
:1000C0000895E7E3F0E0208181E090E002C0880F2E
:1000D000991F4A95E2F78095822380830895E4E38F
:1000E000F0E0208181E090E002C0880F991F4A95DE
:1000F000E2F78095822380830895E1E3F0E0208198
:1001000081E090E002C0880F991F4A95E2F7809540
:100110008223808308958230B9F0833018F48130CF
:10012000C9F505C08330E9F08430A1F527C0EAE3C2
:10013000F0E0208181E090E002C0880F991F4A958D
:10014000E2F7282B20830895E7E3F0E0208181E0A7
:1001500090E002C0880F991F4A95E2F7282B208370
:100160000895E4E3F0E0208181E090E002C0880F90
:10017000991F4A95E2F7282B20830895E1E3F0E0E8
:10018000208181E090E002C0880F991F4A95E2F734
:10019000282B20830895282F362F6AE00E944F03D2
:1001A000492F822F0E944F03332321F0313009F071
:1001B00086C046C08230D1F0833020F4813009F00F
:1001C0007EC006C0833001F1843009F078C02AC0B7
:1001D000EBE3F0E0208181E090E002C0880F991FFE
:1001E0004A95E2F78095822380830895E8E3F0E062
:1001F000208181E090E002C0880F991F4A95E2F7C4
:100200008095822380830895E5E3F0E0208181E0FA
:1002100090E002C0880F991F4A95E2F780958223EB
:1002200080830895E2E3F0E0208181E090E002C065
:10023000880F991F4A95E2F780958223808308955D
:100240008230B9F0833018F48130C9F505C08330AD
:10025000E9F08430A1F527C0EBE3F0E0208181E0F4
:1002600090E002C0880F991F4A95E2F7282B20835F
:100270000895E8E3F0E0208181E090E002C0880F7B
:10028000991F4A95E2F7282B20830895E5E3F0E0D3
:10029000208181E090E002C0880F991F4A95E2F723
:1002A000282B20830895E2E3F0E0208181E090E0B4
:1002B00002C0880F991F4A95E2F7282B20830895E2
:1002C000282F6AE00E944F03392F822F0E944F038C
:1002D0008230A1F0833018F4813029F406C08330D5
:1002E000B1F08430E9F080E0089589B390E002C075
:1002F000959587953A95E2F78170089586B390E0D9
:1003000002C0959587953A95E2F78170089583B379
:1003100090E002C0959587953A95E2F7817008952F
:1003200080B390E002C0959587953A95E2F7817089
:100330000895282F6AE00E944F03392F822F0E94D0
:100340004F038230B9F0833018F48130C9F505C00D
:100350008330E9F08430A1F527C0EBE3F0E02081A1
:1003600081E090E002C0880F991F3A95E2F72827B4
:1003700020830895E8E3F0E0208181E090E002C06E
:10038000880F991F3A95E2F7282720830895E5E31F
:10039000F0E0208181E090E002C0880F991F3A953B
:1003A000E2F7282720830895E2E3F0E0208181E04E
:1003B00090E002C0880F991F3A95E2F72827208322
:1003C0000895282F362F6AE00E944F03492F822F6D
:1003D0000E944F03332321F0313009F086C046C01C
:1003E0008230D1F0833020F4813009F07EC006C025
:1003F000833001F1843009F078C02AC0EBE3F0E0EB
:10040000208181E090E002C0880F991F4A95E2F7B1
:100410008095822380830895E8E3F0E0208181E0E5
:1004200090E002C0880F991F4A95E2F780958223D9
:1004300080830895E5E3F0E0208181E090E002C050
:10044000880F991F4A95E2F780958223808308954B
:10045000E2E3F0E0208181E090E002C0880F991F84
:100460004A95E2F780958223808308958230B9F01F
:10047000833018F48130C9F505C08330E9F0843049
:10048000A1F527C0EBE3F0E0208181E090E002C01D
:10049000880F991F4A95E2F7282B20830895E8E3F7
:1004A000F0E0208181E090E002C0880F991F4A951A
:1004B000E2F7282B20830895E5E3F0E0208181E036
:1004C00090E002C0880F991F4A95E2F7282B2083FD
:1004D0000895E2E3F0E0208181E090E002C0880F1F
:1004E000991F4A95E2F7282B20830895823071F0F6
:1004F000833018F48130A9F405C0833059F084307A
:1005000081F40CC080E10E94990108958FE00E945F
:10051000990108958EE00E94990108958BE10E944F
:10052000990108958230F9F0833020F4813009F088
:1005300052C006C0833051F1843009F04CC039C03C
:1005400080E161E00E94CB0024EC39E040E951E019
:10055000CA010197F1F721503040D1F780E160E006
:100560000E94CB0008958FE061E00E94CB0024EC54
:1005700039E040E951E0CA010197F1F721503040DC
:10058000D1F78FE060E00E94CB0008958EE061E03B
:100590000E94CB0024EC39E040E951E0CA01019708
:1005A000F1F721503040D1F78EE060E00E94CB009F
:1005B00008958BE161E00E94CB0024EC39E040E932
:1005C00051E0CA010197F1F721503040D1F78BE19A
:1005D00060E00E94CB000895823079F0833018F4F7
:1005E0008130C9F405C0833069F08430A1F40FC0B4
:1005F00080E160E00E94CB0008958FE060E00E94FF
:10060000CB0008958EE060E00E94CB0008958BE15E
:1006100060E00E94CB000895823079F0833018F4B6
:100620008130C9F405C0833069F08430A1F40FC073
:1006300080E161E00E94CB0008958FE061E00E94BC
:10064000CB0008958EE061E00E94CB0008958BE11D
:1006500061E00E94CB000895823079F0833018F475
:100660008130C9F405C0833069F08430A1F40FC033
:1006700080E161E00E94360008958FE061E00E9411
:10068000360008958EE061E00E94360008958BE107
:1006900061E00E943600089580E090E00895991B83
:1006A00079E004C0991F961708F0961B881F7A9569
:0A06B000C9F780950895F894FFCF74
:00000001FF
